00090Sistema roler a resorte                                     09200Metro   100000000000054600000068300000014338   000NJDXYZ         00000000 00000000 00000000 00000000 0000 02Sistemas                                                             00090000U
00091Sistema roler a resorte reforzado                           09200Metro   100000000000062900000078600000018759   000NJDXYZ         00000000 00000000 00000000 00000000 0000 02Sistemas                                                             00091000R
00092Sistema a resorte sin freno para cremallera                 09200Metro   100000000000060300000075400000015854   000NJDXYZ         00000000 00000000 00000000 00000000 0000 02Sistemas                                                             00092000R
00093Sistema a resorte sin freno para cremallera reforzado       09200Metro   100000000000072800000091000000018684   000NJDXYZ         00000000 00000000 00000000 00000000 0000 02Sistemas                                                             00093000R
00100Sist.Tecno 29 mm sop.de 50 mm Blanco con cadena metálica.   09205Metro   100000000000044100000055100000011926   000NJDXYZ         00000000 00000000 00000000 00000000 0000 02Sistemas                                                             00100000R
00101Sist.Tecno 29 mm sop.de 50 mm Gris con cadena metálica      09205Metro   100000000000044100000055100000011926   000NJDXYZ         00000000 00000000 00000000 00000000 0000 02Sistemas                                                             00101000R
00102Sist.Tecno 29 mm sop.de 50 mm Beige con cadena metálica     09205Metro   100000000000044100000055100000011926   000NJDXYZ         00000000 00000000 00000000 00000000 0000 02Sistemas                                                             00102000R
00103Sist.Tecno 29 mm sop.de 50 mm Negro con cadena metálica     09205Metro   100000000000044100000055100000011926   000NJDXYZ         00000000 00000000 00000000 00000000 0000 02Sistemas                                                             00103000R
00104Sist.Tecno 29 mm sop.de 50 mm Blanco con cadena plástica    09205Metro   100000000000039800000049800000011613   000NJDXYZ         00000000 00000000 00000000 00000000 0000 02Sistemas                                                             00104000R
00105Sist.Tecno 29 mm sop.de 50 mm Gris con cadena plástica      09205Metro   100000000000039800000049800000011613   000NJDXYZ         00000000 00000000 00000000 00000000 0000 02Sistemas                                                             00105000R
00106Sist.Tecno 29 mm sop.de 50 mm Beige con cadena plástica     09205Metro   100000000000039800000049800000011613   000NJDXYZ         00000000 00000000 00000000 00000000 0000 02Sistemas                                                             00106000R
00107Sist.Tecno 29 mm sop.de 50 mm Negro con cadena plástica     09205Metro   100000000000039800000049800000011613   000NJDXYZ         00000000 00000000 00000000 00000000 0000 02Sistemas                                                             00107000R
00110Sist.Tecno 29 mm sop.de 60 mm Blanco con cadena metálica    09207Metro   100000000000046400000058000000012567   000NJDXYZ         00000000 00000000 00000000 00000000 0000 02Sistemas                                                             00110000R
00111Sist.Tecno 29 mm sop.de 60 mm Gris con cadena metálica      09207Metro   100000000000046400000058000000012567   000NJDXYZ         00000000 00000000 00000000 00000000 0000 02Sistemas                                                             00111000R
00112Sist.Tecno 29 mm sop.de 60 mm Beige con cadena metálica     09207Metro   100000000000046400000058000000012567   000NJDXYZ         00000000 00000000 00000000 00000000 0000 02Sistemas                                                             00112000R
00113Sist.Tecno 29 mm sop.de 60 mm Negro con cadena metálica     09207Metro   100000000000046400000058000000012567   000NJDXYZ         00000000 00000000 00000000 00000000 0000 02Sistemas                                                             00113000R
00114Sist.Tecno 29 mm sop.de 60 mm Blanco con cadena plástica    09207Metro   100000000000041900000052400000012254   000NJDXYZ         00000000 00000000 00000000 00000000 0000 02Sistemas                                                             00114000R
00115Sist.Tecno 29 mm sop.de 60 mm Gris con cadena plástica      09207Metro   100000000000041900000052400000012254   000NJDXYZ         00000000 00000000 00000000 00000000 0000 02Sistemas                                                             00115000R
00116Sist.Tecno 29 mm sop.de 60 mm Beige con cadena plástica     09207Metro   100000000000041900000052400000012254   000NJDXYZ         00000000 00000000 00000000 00000000 0000 02Sistemas                                                             00116000R
00117Sist.Tecno 29 mm sop.de 60 mm Negro con cadena plástica     09207Metro   100000000000041900000052400000012254   000NJDXYZ         00000000 00000000 00000000 00000000 0000 02Sistemas                                                             00117000R
00120Sist.TecnoMaxi 40 mm sop.75 mm Blanco con cadena metálica   09210Metro   100000000000057300000071600000016571   000NJDXYZ         00000000 00000000 00000000 00000000 0000 02Sistemas                                                             00120000R
00121Sist.TecnoMaxi 40 mm sop.75 mm Gris con cadena metálica     09210Metro   100000000000057300000071600000016571   000NJDXYZ         00000000 00000000 00000000 00000000 0000 02Sistemas                                                             00121000R
00122Sist.TecnoMaxi 40 mm sop.75 mm Beige con cadena metálica    09210Metro   100000000000057300000071600000016571   000NJDXYZ         00000000 00000000 00000000 00000000 0000 02Sistemas                                                             00122000R
00123Sist.TecnoMaxi 40 mm sop.75 mm Negro con cadena metálica    09210Metro   100000000000057300000071600000016571   000NJDXYZ         00000000 00000000 00000000 00000000 0000 02Sistemas                                                             00123000R
00124Sist.TecnoMaxi 40 mm sop.75 mm Blanco con cadena plástica   09210Metro   100000000000052200000065300000016258   000NJDXYZ         00000000 00000000 00000000 00000000 0000 02Sistemas                                                             00124000R
00125Sist.TecnoMaxi 40 mm sop.75 mm Gris con cadena plástica     09210Metro   100000000000052200000065300000016258   000NJDXYZ         00000000 00000000 00000000 00000000 0000 02Sistemas                                                             00125000R
00126Sist.TecnoMaxi 40 mm sop.75 mm Beige con cadena plástica    09210Metro   100000000000052200000065300000016258   000NJDXYZ         00000000 00000000 00000000 00000000 0000 02Sistemas                                                             00126000R
00127Sist.TecnoMaxi 40 mm sop.75 mm Negro con cadena plástica    09210Metro   100000000000052200000065300000016258   000NJDXYZ         00000000 00000000 00000000 00000000 0000 02Sistemas                                                             00127000R
00130Sist.TecnoMaxi 40 mm sop.85 mm Blanco con cadena metálica   09213Metro   100000000000057300000071600000016804   000NJDXYZ         00000000 00000000 00000000 00000000 0000 02Sistemas                                                             00130000R
00131Sist.TecnoMaxi 40 mm sop.85 mm Gris con cadena metálica     09213Metro   100000000000057300000071600000016804   000NJDXYZ         00000000 00000000 00000000 00000000 0000 02Sistemas                                                             00131000R
00132Sist.TecnoMaxi 40 mm sop.85 mm Beige con cadena metálica    09213Metro   100000000000057300000071600000016804   000NJDXYZ         00000000 00000000 00000000 00000000 0000 02Sistemas                                                             00132000R
00133Sist.TecnoMaxi 40 mm sop.85 mm Negro con cadena metálica    09213Metro   100000000000057300000071600000016804   000NJDXYZ         00000000 00000000 00000000 00000000 0000 02Sistemas                                                             00133000R
00134Sist.TecnoMaxi 40 mm sop.85 mm Blanco con cadena plástica   09213Metro   100000000000052200000065300000016491   000NJDXYZ         00000000 00000000 00000000 00000000 0000 02Sistemas                                                             00134000R
00135Sist.TecnoMaxi 40 mm sop.85 mm Gris con cadena plástica     09213Metro   100000000000052200000065300000016491   000NJDXYZ         00000000 00000000 00000000 00000000 0000 02Sistemas                                                             00135000R
00136Sist.TecnoMaxi 40 mm sop.85 mm Beige con cadena plástica    09213Metro   100000000000052200000065300000016491   000NJDXYZ         00000000 00000000 00000000 00000000 0000 02Sistemas                                                             00136000R
00137Sist.TecnoMaxi 40 mm sop.85 mm Negro con cadena plástica    09213Metro   100000000000052200000065300000016491   000NJDXYZ         00000000 00000000 00000000 00000000 0000 02Sistemas                                                             00137000R
00140Sistema SuperTecno 48 mm Blco. con cadena plástica          09220Metro   100000000000069300000086600000023452   000NJDXYZ         00000000 00000000 00000000 00000000 0000 02Sistemas                                                             00140000R
00141Sistema SuperTecno 48 mm Gris  con cadena plástica          09220Metro   100000000000069300000086600000023452   000NJDXYZ         00000000 00000000 00000000 00000000 0000 02Sistemas                                                             00141000R
00142Sistema SuperTecno 48 mm Beige con cadena plástica          09220Metro   100000000000069300000086600000023452   000NJDXYZ         00000000 00000000 00000000 00000000 0000 02Sistemas                                                             00142000R
00143Sistema SuperTecno 48 mm Negro con cadena plástica          09220Metro   100000000000069300000086600000023452   000NJDXYZ         00000000 00000000 00000000 00000000 0000 02Sistemas                                                             00143000R
00150Sistema SuperTecno asistido 48 mm Blanco con cadena plástica09222Metro   100000000000086200000107800000028773   000NJDXYZ         00000000 00000000 00000000 00000000 0000 02Sistemas                                                             00150000R
00151Sistema SuperTecno asistido 48 mm Gris con cadena plástica  09222Metro   100000000000086200000107800000028773   000NJDXYZ         00000000 00000000 00000000 00000000 0000 02Sistemas                                                             00151000R
00152Sistema SuperTecno asistido 48 mm Beige con cadena plástica 09222Metro   100000000000086200000107800000028773   000NJDXYZ         00000000 00000000 00000000 00000000 0000 02Sistemas                                                             00152000R
00153Sistema SuperTecno asistido 48 mm Negro con cadena plástica 09222Metro   100000000000086200000107800000028773   000NJDXYZ         00000000 00000000 00000000 00000000 0000 02Sistemas                                                             00153000R
00170Sistema p/automatizar p/motor RA 40 caño de 48 mm           09226Metro   100000000000072700000090900000018973   000NJDXYZ         00000000 00000000 00000000 00000000 0000 02Sistemas                                                             00170000R
00172Sistema p/automatizar p/motor SO 40 caño de 48 mm           09226Metro   100000000000072700000090900000018973   000NJDXYZ         00000000 00000000 00000000 00000000 0000 02Sistemas                                                             00172000R
00173Sist.p/aut.p/motor RA 40 caño 58 mm,zóc.44 pesado Blanco    09229Metro   100000000000072700000090900000026227   000NJDXYZ         00000000 00000000 00000000 00000000 0000N02Sistemas                                                             00173000R
00175Sist.p/aut.p/motor SO 40 caño 58 mm,zóc.44 pesado Blanco    09229Metro   100000000000072700000090900000026227   000NJDXYZ         00000000 00000000 00000000 00000000 0000N02Sistemas                                                             00175000R
00176Sist.p/aut.p/motor RA 50 caño 58 mm,zóc.44 pesado Blanco    09232Metro   100000000000085900000107400000026532   000NJDXYZ         00000000 00000000 00000000 00000000 0000N02Sistemas                                                             00176000R
00178Sist.p/aut.p/motor SO 50 caño 58 mm,zóc.44 pesado Blanco    09232Metro   100000000000085900000107400000026532   000NJDXYZ         00000000 00000000 00000000 00000000 0000N02Sistemas                                                             00178000R
00181Sist.p/aut.p/motor RA 50 caño 58,sop.met,zóc.44 pesado Blco.09234Metro   100000000000092600000115800000035337   000NJDXYZ         00000000 00000000 00000000 00000000 0000N02Sistemas                                                             00181000R
00183Sist.p/aut.p/motor SO 50 caño 58,sop.met,zóc.44 pesado Blco.09234Metro   100000000000092600000115800000035209   000NJDXYZ         00000000 00000000 00000000 00000000 0000N02Sistemas                                                             00183000R
00190Sist.p/aut.p/motor RA 50 caño 78,sop.met,zóc.44 pesado Blco.09235Metro   100000000000121900000152400000042007   000NJDXYZ         00000000 00000000 00000000 00000000 0000N02Sistemas                                                             00190000R
00192Sist.p/aut.p/motor SO 50 caño 78,sop.met,zóc.44 pesado Blco.09235Metro   100000000000121900000152400000042007   000NJDXYZ         00000000 00000000 00000000 00000000 0000N02Sistemas                                                             00192000R
00193Sist.p/aut.p/motor RA 50 caño 100,sop.met,zóc.44 pesado Blco09240Metro   100000000000147700000184600000056871   000NJDXYZ         00000000 00000000 00000000 00000000 0000N02Sistemas                                                             00193000R
00195Sist.p/aut.p/motor SO 50 caño 100,sop.met,zóc.44 pesado Blco09240Metro   100000000000147700000184600000056871   000NJDXYZ         00000000 00000000 00000000 00000000 0000N02Sistemas                                                             00195000R
00210Sistema Tecno c/base sujeción sop.60 Blanco c/cad. metálica 09250Metro   100000000000074700000093400000024985   000NJDXYZ         00000000 00000000 00000000 00000000 0000 02Sistemas                                                             00210000R
00211Sistema Tecno c/base sujeción sop.60 Gris c/cad. metálica   09250Metro   100000000000074700000093400000024985   000NJDXYZ         00000000 00000000 00000000 00000000 0000 02Sistemas                                                             00211000R
00212Sistema Tecno c/base sujeción sop.60 Beige c/cad. metálica  09250Metro   100000000000074700000093400000024985   000NJDXYZ         00000000 00000000 00000000 00000000 0000 02Sistemas                                                             00212000R
00213Sistema Tecno c/base sujeción sop.60 Negro c/cad. metálica  09250Metro   100000000000074700000093400000024985   000NJDXYZ         00000000 00000000 00000000 00000000 0000 02Sistemas                                                             00213000R
00214Sistema Tecno c/base sujeción sop.60 Blanco c/cad. plástica 09250Metro   100000000000074700000093400000024672   000NJDXYZ         00000000 00000000 00000000 00000000 0000 02Sistemas                                                             00214000R
00215Sistema Tecno c/base sujeción sop.60 Gris c/cad. plástica   09250Metro   100000000000074700000093400000024672   000NJDXYZ         00000000 00000000 00000000 00000000 0000 02Sistemas                                                             00215000R
00216Sistema Tecno c/base sujeción sop.60 Beige c/cad. plástica  09250Metro   100000000000074700000093400000024672   000NJDXYZ         00000000 00000000 00000000 00000000 0000 02Sistemas                                                             00216000R
00217Sistema Tecno c/base sujeción sop.60 Negro c/cad. plástica  09250Metro   100000000000074700000093400000024672   000NJDXYZ         00000000 00000000 00000000 00000000 0000 02Sistemas                                                             00217000R
00220Sistema TecnoMaxi c/base suj. sop.75 Blanco c/cad. metálica 09254Metro   100000000000088400000110500000034437   000NJDXYZ         00000000 00000000 00000000 00000000 0000 02Sistemas                                                             00220000R
00221Sistema TecnoMaxi c/base suj. sop.75 Gris c/cad. metálica   09254Metro   100000000000088400000110500000034437   000NJDXYZ         00000000 00000000 00000000 00000000 0000 02Sistemas                                                             00221000R
00222Sistema TecnoMaxi c/base suj. sop.75 Beige c/cad. metálica  09254Metro   100000000000088400000110500000034437   000NJDXYZ         00000000 00000000 00000000 00000000 0000 02Sistemas                                                             00222000R
00223Sistema TecnoMaxi c/base suj. sop.75 Negro c/cad. metálica  09254Metro   100000000000088400000110500000034437   000NJDXYZ         00000000 00000000 00000000 00000000 0000 02Sistemas                                                             00223000R
00224Sistema TecnoMaxi c/base suj. sop.75 Blanco c/cad. plástica 09254Metro   100000000000083500000104400000034124   000NJDXYZ         00000000 00000000 00000000 00000000 0000 02Sistemas                                                             00224000R
00225Sistema TecnoMaxi c/base suj. sop.75 Gris c/cad. plástica   09254Metro   100000000000083500000104400000034124   000NJDXYZ         00000000 00000000 00000000 00000000 0000 02Sistemas                                                             00225000R
00226Sistema TecnoMaxi c/base suj. sop.75 Beige c/cad. plástica  09254Metro   100000000000083500000104400000034124   000NJDXYZ         00000000 00000000 00000000 00000000 0000 02Sistemas                                                             00226000R
00227Sistema TecnoMaxi c/base suj. sop.75 Negro c/cad. plástica  09254Metro   100000000000083500000104400000034124   000NJDXYZ         00000000 00000000 00000000 00000000 0000 02Sistemas                                                             00227000R
00230Sistema TecnoMaxi c/base suj. sop.85 Blanco c/cad. metálica 09258Metro   100000000000097500000121900000036324   000NJDXYZ         00000000 00000000 00000000 00000000 0000 02Sistemas                                                             00230000R
00231Sistema TecnoMaxi c/base suj. sop.85 Gris c/cad. metálica   09258Metro   100000000000097500000121900000036324   000NJDXYZ         00000000 00000000 00000000 00000000 0000 02Sistemas                                                             00231000R
00232Sistema TecnoMaxi c/base suj. sop.85 Beige c/cad. metálica  09258Metro   100000000000097500000121900000036324   000NJDXYZ         00000000 00000000 00000000 00000000 0000 02Sistemas                                                             00232000R
00233Sistema TecnoMaxi c/base suj. sop.85 Negro c/cad. metálica  09258Metro   100000000000097500000121900000036324   000NJDXYZ         00000000 00000000 00000000 00000000 0000 02Sistemas                                                             00233000R
00234Sistema TecnoMaxi c/base suj. sop.85 Blanco c/cad. plástica 09258Metro   100000000000092700000115900000036011   000NJDXYZ         00000000 00000000 00000000 00000000 0000 02Sistemas                                                             00234000R
00235Sistema TecnoMaxi c/base suj. sop.85 Gris c/cad. plástica   09258Metro   100000000000092700000115900000036011   000NJDXYZ         00000000 00000000 00000000 00000000 0000 02Sistemas                                                             00235000R
00236Sistema TecnoMaxi c/base suj. sop.85 Beige c/cad. plástica  09258Metro   100000000000092700000115900000036011   000NJDXYZ         00000000 00000000 00000000 00000000 0000 02Sistemas                                                             00236000R
00237Sistema TecnoMaxi c/base suj. sop.85 Negro c/cad. plástica  09258Metro   100000000000092700000115900000036011   000NJDXYZ         00000000 00000000 00000000 00000000 0000 02Sistemas                                                             00237000R
00240Sistema SuperTecno 48 mm con  base suj. Blanco c/cad.plást. 09262Metro   100000000000115900000144900000042972   000NJDXYZ         00000000 00000000 00000000 00000000 0000 02Sistemas                                                             00240000R
00241Sistema SuperTecno 48 mm con  base suj. Gris c/cad.plást.   09262Metro   100000000000115900000144900000042972   000NJDXYZ         00000000 00000000 00000000 00000000 0000 02Sistemas                                                             00241000R
00242Sistema SuperTecno 48 mm con  base suj. Beige c/cad.plást.  09262Metro   100000000000115900000144900000042972   000NJDXYZ         00000000 00000000 00000000 00000000 0000 02Sistemas                                                             00242000R
00243Sistema SuperTecno 48 mm con  base suj. Negro c/cad.plást.  09262Metro   100000000000115900000144900000042972   000NJDXYZ         00000000 00000000 00000000 00000000 0000 02Sistemas                                                             00243000R
00250Sistema SuperTecno asist.48 mm con base de sujeción Blanco  09264Metro   100000000000134600000168300000048293   000NJDXYZ         00000000 00000000 00000000 00000000 0000 02Sistemas                                                             00250000R
00251Sistema SuperTecno asist.48 mm con base de sujeción Gris    09264Metro   100000000000134600000168300000048293   000NJDXYZ         00000000 00000000 00000000 00000000 0000 02Sistemas                                                             00251000R
00252Sistema SuperTecno asist.48 mm con base de sujeción Beige   09264Metro   100000000000134600000168300000048293   000NJDXYZ         00000000 00000000 00000000 00000000 0000 02Sistemas                                                             00252000R
00253Sistema SuperTecno asist.48 mm con base de sujeción Negro   09264Metro   100000000000134600000168300000048293   000NJDXYZ         00000000 00000000 00000000 00000000 0000 02Sistemas                                                             00253000R
00270Sistema p/aut.c/base sujeción para motor RA 40 caño 48 mm   09268Metro   100000000000113600000142000000036839   000NJDXYZ         00000000 00000000 00000000 00000000 0000 02Sistemas                                                             00270000R
00272Sistema p/aut.c/base sujeción para motor SO 40 caño 48 mm   09268Metro   100000000000113600000142000000040361   000NJDXYZ         00000000 00000000 00000000 00000000 0000 02Sistemas                                                             00272000R
00273Sist.p/aut.c/base suj.p/motor RA 40 caño 58,zóc.44 pes.Blco 09275Metro   100000000000118900000148600000046067   000NJDXYZ         00000000 00000000 00000000 00000000 0000N02Sistemas                                                             00273000R
00275Sist.p/aut.c/base suj.p/motor SO 40,caño 58,zóc.44 pes.Blco 09275Metro   100000000000118900000148600000049910   000NJDXYZ         00000000 00000000 00000000 00000000 0000N02Sistemas                                                             00275000R
00276Sist.p/aut.c/base suj.p/motor RA 50 caño 58,zóc.44 pes.Blco 09280Metro   100000000000127400000159300000046372   000NJDXYZ         00000000 00000000 00000000 00000000 0000N02Sistemas                                                             00276000R
00278Sist.p/aut.c/base suj.p/motor SO 50 caño 58,zóc.44 pes.Blco 09280Metro   100000000000127400000159300000050215   000NJDXYZ         00000000 00000000 00000000 00000000 0000N02Sistemas                                                             00278000R
00281Sist.p/aut.c/b.suj.p/motor RA 50 caño 58,s.met,zóc.44 pes.Bl09290Metro   100000000000143100000178900000055177   000NJDXYZ         00000000 00000000 00000000 00000000 0000N02Sistemas                                                             00281000R
00283Sist.p/aut.c/b.suj.p/motor SO 50 caño 58,s.met,zóc.44 pes.Bl09290Metro   100000000000143100000178900000059019   000NJDXYZ         00000000 00000000 00000000 00000000 0000N02Sistemas                                                             00283000R
00322Sist.TecnoMaxi cadena met. con frente recto de 75 mm        09301Metro   100000000000097100000121400000023446   000   XYZ         00000000 00000000 00000000 00000000 0000 02Sistemas                                                             00322000R
00323Sist.TecnoMaxi cadena plás.con frente recto de 75 mm        09301Metro   100000000000092900000116100000023133   000   XYZ         00000000 00000000 00000000 00000000 0000 02Sistemas                                                             00323000R
00374Sist.p/motor RA 40 y caño 48mm c/frente recto 75mm p/autom. 09302Metro   100000000000116000000145000000026903   000   XYZ         00000000 00000000 00000000 00000000 0000 02Sistemas                                                             00374000R
00376Sist.p/motor SO 40 y caño 48mm c/frente recto 75mm p/autom. 09302Metro   100000000000116000000145000000027864   000   XYZ         00000000 00000000 00000000 00000000 0000 02Sistemas                                                             00376000R
00400Sistema Tecno cadena metálica c/cenefa frente curvo de 60 mm09303Metro   100000000000088500000110600000018733   000NJDXYZ         00000000 00000000 00000000 00000000 0000 02Sistemas                                                             00400000R
00401Sistema Tecno cadena plástica c/cenefa frente curvo de 60 mm09303Metro   100000000000083300000104100000018420   000NJDXYZ         00000000 00000000 00000000 00000000 0000 02Sistemas                                                             00401000R
00410Sistema Tecno cadena metálica c/cenefa frente curvo de 75 mm09304Metro   100000000000091200000114000000021221   000NJDXYZ         00000000 00000000 00000000 00000000 0000 02Sistemas                                                             00410000R
00411Sistema Tecno cadena plástica c/cenefa frente curvo de 75 mm09304Metro   100000000000087500000109400000019877   000NJDXYZ         00000000 00000000 00000000 00000000 0000 02Sistemas                                                             00411000R
00412Sist.TecnoMaxi cadena metálica c/cenefa frente curvo de 75mm09305Metro   100000000000098300000122900000024194   000NJDXYZ         00000000 00000000 00000000 00000000 0000 02Sistemas                                                             00412000R
00413Sist.TecnoMaxi cadena plástica c/cenefa frente curvo de 75mm09305Metro   100000000000093300000116600000023881   000NJDXYZ         00000000 00000000 00000000 00000000 0000 02Sistemas                                                             00413000R
00414Sist.p/motor RA 40 y caño 48mm c/cenefa frente curvo de 75mm09306Metro   100000000000121900000152400000026596   000NJDXYZ         00000000 00000000 00000000 00000000 0000 02Sistemas                                                             00414000R
00416Sist.p/motor SO 40 y caño 48mm c/cenefa frente curvo de 75mm09306Metro   100000000000121900000152400000026596   000NJDXYZ         00000000 00000000 00000000 00000000 0000 02Sistemas                                                             00416000R
00420Sistema Tecno cadena metálica c/cenefa frente recto de 75 mm09307Metro   100000000000097100000121400000025527   000NJD            00000000 00000000 00000000 00000000 0000 02Sistemas                                                             00420000R
00421Sistema Tecno cadena plástica c/cenefa frente recto de 75 mm09307Metro   100000000000093000000116300000025214   000NJD            00000000 00000000 00000000 00000000 0000 02Sistemas                                                             00421000R
00422Sist.TecnoMaxi cadena metálica c/cenefa frente recto de 75mm09308Metro   100000000000104200000130300000028500   000NJD            00000000 00000000 00000000 00000000 0000 02Sistemas                                                             00422000R
00423Sist.TecnoMaxi cadena plástica c/cenefa frente recto de 75mm09308Metro   100000000000099800000124800000028187   000NJD            00000000 00000000 00000000 00000000 0000 02Sistemas                                                             00423000R
00424Sist.p/motor RA 40 y caño 48mm c/cenefa frente recto de 75mm09309Metro   100000000000122900000153600000030902   000NJD            00000000 00000000 00000000 00000000 0000 02Sistemas                                                             00424000R
00426Sist.p/motor SO 40 y caño 48mm c/cenefa frente recta de 75mm09309Metro   100000000000122900000153600000030902   000NJD            00000000 00000000 00000000 00000000 0000 02Sistemas                                                             00426000R
00430Sist.TecnoMaxi cadena metálica c/cenefa frente recto 100 mm 09310Metro   100000000000120000000150000000045036   000NJD            00000000 00000000 00000000 00000000 0000 02Sistemas                                                             00430000R
00431Sist.TecnoMaxi cadena plástica c/cenefa frente recto 100 mm 09310Metro   100000000000115600000144500000044723   000NJD            00000000 00000000 00000000 00000000 0000 02Sistemas                                                             00431000R
00432Sistema SuperTecno con cenefa frente recto de 100 mm        09311Metro   100000000000135000000168800000051917   000NJD            00000000 00000000 00000000 00000000 0000 02Sistemas                                                             00432000R
00433Sistema SuperTecno 48 asistido c/cenefa frente recto 100 mm 09312Metro   100000000000151700000189600000057238   000NJD            00000000 00000000 00000000 00000000 0000 02Sistemas                                                             00433000R
00441Sist.p/motor RA 40 y caño 48mm c/cenefa frente recto 100 mm 09314Metro   100000000000138300000172900000046797   000NJD            00000000 00000000 00000000 00000000 0000 02Sistemas                                                             00441000R
00443Sist.p/motor SO 40 y caño 48mm c/cenefa frente recto 100 mm 09314Metro   100000000000138300000172900000047758   000NJD            00000000 00000000 00000000 00000000 0000 02Sistemas                                                             00443000R
00451Sis.p/mot.RA 40 caño 58,zóc 44 pes.Bco.c/cenefa fr.recto 10009315Metro   100000000000151500000189400000055012   000NJD            00000000 00000000 00000000 00000000 0000N02Sistemas                                                             00451000R
00453Sis.p/mot.SO 40 caño 58,zóc 44 pes.Bco.c/cenefa fr.recto 10009315Metro   100000000000151500000189400000056934   000NJD            00000000 00000000 00000000 00000000 0000N02Sistemas                                                             00453000R
00461Sis.p/mot.RA 50 caño 58,zóc 44 pes.Bco.c/cenefa fr.recto 10009316Metro   100000000000151500000189400000055317   000NJD            00000000 00000000 00000000 00000000 0000N02Sistemas                                                             00461000R
00463Sis.p/mot.SO 50 caño 58,zóc 44 pes.Bco.c/cenefa fr.recto 10009316Metro   100000000000151500000189400000057238   000NJD            00000000 00000000 00000000 00000000 0000N02Sistemas                                                             00463000R
00500Sistema Tecno cadena metálica c/casette frente curvo 60 mm  09317Metro   100000000000124200000155300000027396   000NJDXYZ         00000000 00000000 00000000 00000000 0000 02Sistemas                                                             00500000R
00501Sistema Tecno cadena plástica c/casette frente curvo 60 mm  09317Metro   100000000000120200000150300000027083   000NJDXYZ         00000000 00000000 00000000 00000000 0000 02Sistemas                                                             00501000R
00510Sistema Tecno cadena metálica c/casette frente curvo 75 mm  09318Metro   100000000000136200000170300000033509   000NJDXYZ         00000000 00000000 00000000 00000000 0000 02Sistemas                                                             00510000R
00511Sistema Tecno cadena plástica c/casette frente curvo 75 mm  09318Metro   100000000000131600000164500000033196   000NJDXYZ         00000000 00000000 00000000 00000000 0000 02Sistemas                                                             00511000R
00512Sist.TecnoMaxi cadena metálica c/casette frente curvo 75 mm 09319Metro   100000000000142600000178300000037514   000NJDXYZ         00000000 00000000 00000000 00000000 0000 02Sistemas                                                             00512000R
00513Sist.TecnoMaxi cadena plástica c/casette frente curvo 75 mm 09319Metro   100000000000138300000172900000037201   000NJDXYZ         00000000 00000000 00000000 00000000 0000 02Sistemas                                                             00513000R
00514Sistema para motor RA 40 mm   c/casette frente curvo 75 mm  09320Metro   100000000000161300000201600000039915   000NJDXYZ         00000000 00000000 00000000 00000000 0000 02Sistemas                                                             00514000R
00516Sistema para motor SO 40 mm   c/casette frente curvo 75 mm  09320Metro   100000000000161300000201600000039915   000NJDXYZ         00000000 00000000 00000000 00000000 0000 02Sistemas                                                             00516000R
00522Sist.TecnoMaxi cadena metálica c/casette frente recto 80 mm 09322Metro   100000000000151400000189300000050180   000NJDXYZ         00000000 00000000 00000000 00000000 0000 02Sistemas                                                             00522000R
00523Sist.TecnoMaxi cadena plástica c/casette frente recto 80 mm 09322Metro   100000000000147000000183800000049867   000NJDXYZ         00000000 00000000 00000000 00000000 0000 02Sistemas                                                             00523000R
00524Sistema para motor RA 40 mm   c/casette frente recto 80 mm  09323Metro   100000000000170200000212800000052972   000NJDXYZ         00000000 00000000 00000000 00000000 0000 02Sistemas                                                             00524000R
00526Sistema para motor SO 40 mm   c/casette frente recto 80 mm  09323Metro   100000000000170200000212800000052972   000NJDXYZ         00000000 00000000 00000000 00000000 0000 02Sistemas                                                             00526000R
00528Suplemento para Casette frente recto de 80 mm               09324Metro   300000000000012500000015600000007075   000               00000000 00000000 00000000 00000000 0000 09Accesorios                                                           00528000R
00532Sist.Supertecno 48 cad.plást. c/casette frente recto 100 mm 09326Metro   100000000000176600000220800000064077   000NJDXYZ         00000000 00000000 00000000 00000000 0000 02Sistemas                                                             00532000R
00535Sist.Supertecno 48 asist. cad.plás.c/casette fr.recto 100 mm09327Metro   100000000000194600000243300000069397   000NJDXYZ         00000000 00000000 00000000 00000000 0000 02Sistemas                                                             00535000R
00540Sist.p/motor RA 40 y caño 48mm c/casette frente recto 100 mm09329Metro   100000000000186000000232500000059988   000NJDXYZ         00000000 00000000 00000000 00000000 0000 02Sistemas                                                             00540000R
00542Sist.p/motor SO 40 y caño 48mm c/casette frente recto 100 mm09329Metro   100000000000186000000232500000059988   000NJDXYZ         00000000 00000000 00000000 00000000 0000 02Sistemas                                                             00542000R
00550Sis.p/mot.RA 40 caño 58,zóc 44 pes.Bco.c/casette f.recto 10009330Metro   100000000000209400000261800000067880   000NJDXYZ         00000000 00000000 00000000 00000000 0000N02Sistemas                                                             00550000R
00552Sis.p/mot.SO 40 caño 58,zóc 44 pes.Bco.c/casette f.recto 10009330Metro   100000000000209400000261800000075955   000NJDXYZ         00000000 00000000 00000000 00000000 0000N02Sistemas                                                             00552000R
00560Sis.p/mot.RA 50 caño 58,zóc 44 pes.Bco.c/casette f.recto 10009331Metro   100000000000209400000261800000076989   000NJDXYZ         00000000 00000000 00000000 00000000 0000N02Sistemas                                                             00560000R
00562Sis.p/mot.SO 50 caño 58,zóc 44 pes.Bco.c/casette f.recto 10009331Metro   100000000000209400000261800000076861   000NJDXYZ         00000000 00000000 00000000 00000000 0000N02Sistemas                                                             00562000R
00568Sitema autom. con casette recto de 100 p/ motor Lutron R100 09245Metro   140000000000209400000261800000076599   000               00000000 00000000 00000000 00000000 0000 02Sistemas                                                             00568000R
00580Sis.p/mot.RA 50 caño 58,zóc 44 pes.Bco.c/casette 105 High In09332Metro   100000000000256900000321100000064164   000NJDXYZ         00000000 00000000 00000000 00000000 0000N02Sistemas                                                             00580000R
00601Sist.p/aut.c/b.suj.p/mot.RA 40 c/48,1 sop.int.              09334Metro   100000000000118500000148100000032121   000NJDXYZ         00000000 00000000 00000000 00000000 0000 02Sistemas                                                             00601000R
00602Sist.p/aut.c/b.suj.p/mot.SO 40 c/48,1 sop.int.              09334Metro   100000000000118500000148100000035643   000NJDXYZ         00000000 00000000 00000000 00000000 0000 02Sistemas                                                             00602000R
00604Sist.p/aut.c/b.suj.p/mot.RA 40 c/48,2 sop.int.              09334Metro   100000000000118500000148100000037711   000NJDXYZ         00000000 00000000 00000000 00000000 0000 02Sistemas                                                             00604000R
00605Sist.p/aut.c/b.suj.p/mot.SO 40 c/48,2 sop.int.              09334Metro   100000000000118500000148100000041554   000NJDXYZ         00000000 00000000 00000000 00000000 0000 02Sistemas                                                             00605000R
00606Sist.p/aut.c/b.suj.p/mot.RA 50 c/58,1 sop.int,zóc.44 pes.Bl.09334Metro   100000000000118500000148100000039881   000NJDXYZ         00000000 00000000 00000000 00000000 0000N02Sistemas                                                             00606000R
00607Sist.p/aut.c/b.suj.p/mot.SO 50 c/58,1 sop.int,zóc.44 pes.Bl.09334Metro   100000000000118500000148100000044045   000NJDXYZ         00000000 00000000 00000000 00000000 0000N02Sistemas                                                             00607000R
00608Sist.p/aut.c/b.suj.p/mot.RA 50 c/58,2 sop.int,zóc.44 pes.Bl.09334Metro   100000000000124100000155100000046202   000NJDXYZ         00000000 00000000 00000000 00000000 0000N02Sistemas                                                             00608000R
00609Sist.p/aut.c/b.suj.p/mot.SO 50 c/58,2 sop.int,zóc.44 pes.Bl.09334Metro   100000000000124100000155100000046202   000NJDXYZ         00000000 00000000 00000000 00000000 0000N02Sistemas                                                             00609000R
00651Sist.p/aut.c/cajón fr.rec. 80 p/motor RA 40 c/48,1 sop.int. 09338Metro   100000000000183400000229300000053968   000NJDXYZ         00000000 00000000 00000000 00000000 0000 02Sistemas                                                             00651000R
00653Sist.p/aut.c/cajón fr.rec. 80 p/motor SO 40 c/48,1 sop.int. 09338Metro   100000000000183400000229300000061406   000NJDXYZ         00000000 00000000 00000000 00000000 0000 02Sistemas                                                             00653000R
00656Sist.p/aut.c/cajón fr.rec. 80 p/motor RA 40 c/48,2 sop.int. 09338Metro   100000000000192200000240300000067960   000NJDXYZ         00000000 00000000 00000000 00000000 0000 02Sistemas                                                             00656000R
00658Sist.p/aut.c/cajón fr.rec. 80 p/motor SO 40 c/48,2 sop.int. 09338Metro   100000000000183400000229300000076682   000NJDXYZ         00000000 00000000 00000000 00000000 0000 02Sistemas                                                             00658000R
00661Sist.p/aut.c/cajón fr.rec.100 p/motor RA 40 c/48,1 sop.int. 09339Metro   100000000000199600000249500000059703   000NJDXYZ         00000000 00000000 00000000 00000000 0000 02Sistemas                                                             00661000R
00663Sist.p/aut.c/cajón fr.rec.100 p/motor SO 40 c/48,1 sop.int. 09339Metro   100000000000199600000249500000067141   000NJDXYZ         00000000 00000000 00000000 00000000 0000 02Sistemas                                                             00663000R
00666Sist.p/aut.c/cajón fr.rec.100 p/motor RA 40 c/48,2 sop.int. 09339Metro   100000000000199600000249500000073689   000NJDXYZ         00000000 00000000 00000000 00000000 0000 02Sistemas                                                             00666000R
00668Sist.p/aut.c/cajón fr.rec.100 p/motor SO 40 c/48,2 sop.int. 09339Metro   100000000000199600000249500000082405   000NJDXYZ         00000000 00000000 00000000 00000000 0000 02Sistemas                                                             00668000R
00681Sis.p/aut.c/caj.f.rec.100 mot.RA 50 c/58,1 s.int,zóc.44 p.Bl09339Metro   100000000000214800000268500000063650   000NJDXYZ         00000000 00000000 00000000 00000000 0000N02Sistemas                                                             00681000R
00683Sis.p/aut.c/caj.f.rec.100 mot.SO 50 c/58,1 s.int,zóc.44 p.Bl09339Metro   100000000000214800000268500000071725   000NJDXYZ         00000000 00000000 00000000 00000000 0000N02Sistemas                                                             00683000R
00686Sis.p/aut.c/caj.f.rec.100 mot.RA 50 c/58,2 s.int,zóc.44 p.Bl09339Metro   100000000000214800000268500000071256   000NJDXYZ         00000000 00000000 00000000 00000000 0000N02Sistemas                                                             00686000R
00688Sis.p/aut.c/caj.f.rec.100 mot.SO 50 c/58,2 s.int,zóc.44 p.Bl09339Metro   100000000000214800000268500000080616   000NJDXYZ         00000000 00000000 00000000 00000000 0000N02Sistemas                                                             00688000R
00691Sist.p/aut.c/b.suj.p/mot.RA 50 c/78,1 sop.int,zóc.44 pes.Bl.09334Metro   100000000000169900000212400000058290   000NJDXYZ         00000000 00000000 00000000 00000000 0000N02Sistemas                                                             00691000R
00693Sist.p/aut.c/b.suj.p/mot.SO 50 c/78,1 sop.int,zóc.44 pes.Bl.09334Metro   100000000000169900000212400000058290   000NJDXYZ         00000000 00000000 00000000 00000000 0000N02Sistemas                                                             00693000R
00700Sist.p/dos Tecnoroll T.Maxi c/base sujeción de 75x143mm     09342Metro   100000000000182300000227900000050633   000NQ             00000000 00000000 00000000 00000000 0000 02Sistemas                                                             00700000R
00701Sist.p/dos Tecnoroll 1 sis.T.Maxi 1 sis.aut.bas.suj.75x143mm09342Metro   100000000000197700000247100000053035   000NQ             00000000 00000000 00000000 00000000 0000 02Sistemas                                                             00701000R
00702Sist.p/dos Tecnoroll automat. c/base sujeción de 75x143mm   09342Metro   100000000000222800000278500000056364   000NQ             00000000 00000000 00000000 00000000 0000 02Sistemas                                                             00702000R
00710Sist.casette alum.p/dos roler c/2 sist.T.Maxi c/p 90 x 150  09343Metro   100000000000291700000364600000070838   000NQ             00000000 00000000 00000000 00000000 0000 02Sistemas                                                             00710000R
00711Sist.casette alum.p/dos roler 1 sis. T.Maxi c/p y 1 sis.aut.09343Metro   100000000000309000000386300000081068   000NQ             00000000 00000000 00000000 00000000 0000 02Sistemas                                                             00711000R
00712Sist.casette alum.p/dos roler c/sist. p/motor RA 40 90 x 15009343Metro   100000000000330800000413500000076422   000NQ             00000000 00000000 00000000 00000000 0000 02Sistemas                                                             00712000R
00713Sist.casette alum.p/dos roler sist.aut.consec. 1 sop.int.   09343Metro   100000000000350500000438100000087097   000NQ             00000000 00000000 00000000 00000000 0000 02Sistemas                                                             00713000R
00714Sist.casette alum.p/dos roler sist.aut.consec. 2 sop.int.   09343Metro   100000000000370000000462500000098553   000NQ             00000000 00000000 00000000 00000000 0000 02Sistemas                                                             00714000R
00720Sistema Tecnoroll con manivela para caño de 63 mm           09350Metro   100000000000121900000152400000047783   000NJDXYZ         00000000 00000000 00000000 00000000 0000 02Sistemas                                                             00720000R
00721Sistema Tecnoroll con manivela para caño de 70 mm           09350Metro   100000000000121900000152400000046545   000NJDXYZ         00000000 00000000 00000000 00000000 0000 02Sistemas                                                             00721000R
00730Sistema Tecnoroll Zip automat. tubo 58 motor 50 RA          09345Metro   100000000000199100000248900000063634   000NJDXYZ         00000000 00000000 00000000 00000000 0000 02Sistemas                                                             00730000R
00745Sistema Eclipse High 75 mm con base sujeción cad.plástica   09355Metro   100000000000124700000155900000042732   000NJDXYZ         00000000 00000000 00000000 00000000 0000 02Sistemas                                                             00745000R
00748Sistema Eclipse High 75 mm con base sujeción Automatizado   09358Metro   100000000000141000000176300000040767   000NJDXYZ         00000000 00000000 00000000 00000000 0000 02Sistemas                                                             00748000R
00755Sistema Eclipse High 75 mm Box curvo manual cad.plástica    09355Metro   100000000000144900000181100000048598   000NJDXYZ         00000000 00000000 00000000 00000000 0000 02Sistemas                                                             00755000R
00758Sistema Eclipse High 75 mm Box curvo automat. motor 40 mm   09358Metro   100000000000160900000201100000045879   000NJDXYZ         00000000 00000000 00000000 00000000 0000 02Sistemas                                                             00758000R
00765Sistema Eclipse High 100 mm recto manual cad.plástica       09355Metro   100000000000195600000244500000062814   000NJDXYZ         00000000 00000000 00000000 00000000 0000 02Sistemas                                                             00765000R
00768Sistema Eclipse High 100 mm recto automatizado motor 40 mm  09358Metro   100000000000220100000275100000060018   000NJDXYZ         00000000 00000000 00000000 00000000 0000 02Sistemas                                                             00768000R
00787Eclipse con base de sujeción para motor Lutron R64          09246Metro   100000000000140000000175000000043177   000               00000000 00000000 00000000 00000000 0000 02Sistemas                                                             00787000R
00797Casette Eclipse 75 curvo para motor Lutron R64              09246Metro   100000000000160900000201100000046459   000               00000000 00000000 00000000 00000000 0000 02Sistemas                                                             00797000R
08002Cordon de 3 mm Nylon x Metro                                08200Metro   000000000000000360000000450000000050   000               00000000 00000000 00000000 00000000 0000 09Accesorios                                                           08002000R
08003Contrapeso para cordon en la  cortina Multistore Prolight   08200Unid.   000000000000003200000004000000000612   000               00000000 00000000 00000000 00000000 0000 09Accesorios                                                           08003000R
08026Soporte ángulo para riel Multistore Prolight color Blanco   08035Unid.   000000000000004800000006000000000975   000               00000000 00000000 00000000 00000000 0000 09Accesorios                                                           08026000R
08027Soporte ángulo para riel Multistore Prolight color Gris     08035Unid.   000000000000004800000006000000000975   000               00000000 00000000 00000000 00000000 0000 09Accesorios                                                           08027000R
08029Soporte ángulo para riel Multistore Prolight color Negro    08035Unid.   000000000000004800000006000000000975   000               00000000 00000000 00000000 00000000 0000 09Accesorios                                                           08029000R
08030Soporte para techo para riel  Multistore Prolight           08035Unid.   000000000000001050000001310000000221   000               00000000 00000000 00000000 00000000 0000 09Accesorios                                                           08030000R
08036Soporte ángulo para riel Multistore Prolight c/bandas 250 mm08035Unid.   000000000000011400000014300000004567   000               00000000 00000000 00000000 00000000 0000 09Accesorios                                                           08036000R
08039Soporte ángulo para riel Prolight automatizado, bandas 9 cm 08035Unid.   000000000000006000000007500000003688   000               00000000 00000000 00000000 00000000 0000 09Accesorios                                                           08039000R
08071Bandas de fibra de vidrio Rain Blanco                       08175Metro   300000000000004600000005800000001465   000               00000000 00000000 00000000 00000000 0000 09Accesorios                                                           08071000R
08072Bandas de fibra de vidrio Rain Azul                         08175Metro   300000000000004600000005800000001465   000               00000000 00000000 00000000 00000000 0000 09Accesorios                                                           08072000R
08075Bandas de fibra de vidrio Rain Gris                         08175Metro   300000000000004600000005800000001465   000               00000000 00000000 00000000 00000000 0000 09Accesorios                                                           08075000R
08076Bandas de fibra de vidrio Rain Beige                        08175Metro   300000000000004600000005800000001465   000               00000000 00000000 00000000 00000000 0000 09Accesorios                                                           08076000R
08078Bandas de fibra de vidrio Rain Beige Oscuro                 08175Metro   300000000000004600000005800000001465   000               00000000 00000000 00000000 00000000 0000 09Accesorios                                                           08078000R
08081Bandas Poliéster Blanco                                     08170Metro   300000000000002400000003000000000697   000               00000000 00000000 00000000 00000000 0000 09Accesorios                                                           08081000R
08082Bandas Poliéster Amarillo                                   08170Metro   300000000000002400000003000000000697   000               00000000 00000000 00000000 00000000 0000 09Accesorios                                                           08082000R
08083Bandas Poliéster Verde                                      08170Metro   300000000000002400000003000000000697   000               00000000 00000000 00000000 00000000 0000 09Accesorios                                                           08083000R
08084Bandas Poliéster Azul                                       08170Metro   300000000000002400000003000000000697   000               00000000 00000000 00000000 00000000 0000 09Accesorios                                                           08084000R
08085Bandas Poliéster Gris                                       08170Metro   300000000000002400000003000000000697   000               00000000 00000000 00000000 00000000 0000 09Accesorios                                                           08085000R
08086Bandas Poliéster Beige                                      08170Metro   300000000000002400000003000000000697   000               00000000 00000000 00000000 00000000 0000 09Accesorios                                                           08086000R
08087Bandas Poliéster Mora                                       08170Metro   300000000000002400000003000000000697   000               00000000 00000000 00000000 00000000 0000 09Accesorios                                                           08087000R
08088Bandas Poliéster Tomate                                     08170Metro   300000000000002400000003000000000697   000               00000000 00000000 00000000 00000000 0000 09Accesorios                                                           08088000R
08089Bandas Poliester Negro                                      08170Metro   300000000000002400000003000000000697   000               00000000 00000000 00000000 00000000 0000 09Accesorios                                                           08089000R
08111Riel Multistore armado Prolight Anodizado Natural           08005Metro   100000000000045500000056900000012673   000NBIDC          00000000 00000000 00000000 00000000 0000 02Sistemas                                                             08111000R
08112Riel Multistore armado Prolight Blanco                      08005Metro   100000000000045500000056900000011584   000NBIDC          00000000 00000000 00000000 00000000 0000 02Sistemas                                                             08112000R
08114Riel Multistore armado Prolight Negro                       08005Metro   100000000000045500000056900000012673   000NBIDC          00000000 00000000 00000000 00000000 0000 02Sistemas                                                             08114000R
08116Riel Multistore armado Prolight 250 Anodizado Natural       08010Metro   100000000000048800000061000000012559   000NBIDC          00000000 00000000 00000000 00000000 0000 02Sistemas                                                             08116000R
08117Riel Multistore armado Prolight 250 Blanco                  08010Metro   100000000000048800000061000000012559   000NBIDC          00000000 00000000 00000000 00000000 0000 02Sistemas                                                             08117000R
08119Riel Multistore armado Prolight 250 Negro                   08010Metro   100000000000048800000061000000012559   000NBIDC          00000000 00000000 00000000 00000000 0000 02Sistemas                                                             08119000R
08121Cenefa para riel Multistore Prolight Anodizado Natural      08037Metro   100000000000049900000062400000014454   000               00000000 00000000 00000000 00000000 0000 09Accesorios                                                           08121000R
08122Cenefa para riel Multistore Prolight Blanco                 08037Metro   100000000000049900000062400000014454   000               00000000 00000000 00000000 00000000 0000 09Accesorios                                                           08122000R
08124Cenefa para riel Multistore Prolight Negro                  08037Metro   100000000000049900000062400000014454   000               00000000 00000000 00000000 00000000 0000 09Accesorios                                                           08124000R
08130Riel Multistore Prolight automat. Blanco p/motor MS prolight08015Metro   100000000000336000000420000000145269   000     FJ        00000000 00000000 00000000 00000000 0000 02Sistemas                                                             08130000R
08135Motor RA para Multistore Prolight automatizado con emisor   08015Unid.   000000000000885000001106300000348010   000               00000000 00000000 00000000 00000000 0000 02Sistemas                                                             08135000R
08161Bandas Sun Screen 6% Blanca                                 08165Metro   300000000000004400000005500000001246   000               00000000 00000000 00000000 00000000 0000 09Accesorios                                                           08161000R
08165Bandas Sun-Screen 6% Gris                                   08165Metro   300000000000004400000005500000001246   000               00000000 00000000 00000000 00000000 0000 09Accesorios                                                           08165000R
08166Bandas Sun-Screen 6% Beige                                  08165Metro   300000000000004400000005500000001246   000               00000000 00000000 00000000 00000000 0000 09Accesorios                                                           08166000R
08180Bandas Shadow Black-Out Blanco                              08160Metro   300000000000005800000007300000001384   000               00000000 00000000 00000000 00000000 0000 09Accesorios                                                           08180000R
08181Bandas Shadow Black-Out Magenta                             08160Metro   300000000000005800000007300000001384   000               00000000 00000000 00000000 00000000 0000 09Accesorios                                                           08181000R
08182Bandas Shadow Black-Out Violeta                             08160Metro   300000000000005800000007300000001384   000               00000000 00000000 00000000 00000000 0000 09Accesorios                                                           08182000R
08183Bandas Shadow Black-Out Gris                                08160Metro   300000000000005800000007300000001384   000               00000000 00000000 00000000 00000000 0000 09Accesorios                                                           08183000R
08184Bandas Shadow Black-Out Loro                                08160Metro   300000000000005800000007300000001384   000               00000000 00000000 00000000 00000000 0000 09Accesorios                                                           08184000R
08185Bandas Shadow Black-Out Anaranjado                          08160Metro   300000000000005800000007300000001384   000               00000000 00000000 00000000 00000000 0000 09Accesorios                                                           08185000R
08186Bandas Shadow Black-Out Tinto                               08160Metro   300000000000005800000007300000001384   000               00000000 00000000 00000000 00000000 0000 09Accesorios                                                           08186000R
08187Bandas Shadow Black-Out Marrón                              08160Metro   300000000000005800000007300000001384   000               00000000 00000000 00000000 00000000 0000 09Accesorios                                                           08187000R
08188Bandas Shadow Black-Out Beige                               08160Metro   300000000000005800000007300000001384   000               00000000 00000000 00000000 00000000 0000 09Accesorios                                                           08188000R
08189Bandas Shadow Black-Out Beige Oscuro                        08160Metro   300000000000005800000007300000001384   000               00000000 00000000 00000000 00000000 0000 09Accesorios                                                           08189000R
08190Bandas de reemplazo para riel de 250mm, tela Poliester      08185Metro   300000000000010500000013100000002534   000               00000000 00000000 00000000 00000000 0000 09Accesorios                                                           08190000R
08199Bandas Shadow Black-Out Tomate                              08160Metro   300000000000005800000007300000001384   000               00000000 00000000 00000000 00000000 0000 09Accesorios                                                           08199000R
08252Bandas Circus Naranja                                       08180Metro   300000000000005300000006600000001332   000               00000000 00000000 00000000 00000000 0000 09Accesorios                                                           08252000R
08253Bandas Circus Terracota                                     08180Metro   300000000000005300000006600000001332   000               00000000 00000000 00000000 00000000 0000 09Accesorios                                                           08253000R
08254Bandas Circus Verde                                         08180Metro   300000000000005300000006600000001332   000               00000000 00000000 00000000 00000000 0000 09Accesorios                                                           08254000R
08255Bandas Circus Cinza                                         08180Metro   300000000000005300000006600000001332   000               00000000 00000000 00000000 00000000 0000 09Accesorios                                                           08255000R
08256Bandas Circus Azul                                          08180Metro   300000000000005300000006600000001332   000               00000000 00000000 00000000 00000000 0000 09Accesorios                                                           08256000R
08257Bandas Circus Lila                                          08180Metro   300000000000005300000006600000001332   000               00000000 00000000 00000000 00000000 0000 09Accesorios                                                           08257000R
08261Bandas Venezia Blanco                                       08140Metro   340000000000003800000004800000001218   000               00000000 00000000 00000000 00000000 0000 09Accesorios                                                           08261000R
08262Bandas Venezia Topo                                         08140Metro   340000000000003800000004800000001218   000               00000000 00000000 00000000 00000000 0000 09Accesorios                                                           08262000R
08263Bandas Venezia Beige                                        08140Metro   340000000000003800000004800000001218   000               00000000 00000000 00000000 00000000 0000 09Accesorios                                                           08263000R
08271Bandas Presto Print Blanco                                  08145Metro   300000000000004600000005800000001456   000               00000000 00000000 00000000 00000000 0000 09Accesorios                                                           08271000R
08272Bandas Presto Print Gris                                    08145Metro   340000000000004600000005800000001456   000               00000000 00000000 00000000 00000000 0000 09Accesorios                                                           08272000R
08273Bandas Presto Print Beige                                   08145Metro   340000000000004600000005800000001456   000               00000000 00000000 00000000 00000000 0000 09Accesorios                                                           08273000R
08281Bandas Lima Blanco                                          08150Metro   300000000000003200000004000000000980   000               00000000 00000000 00000000 00000000 0000 09Accesorios                                                           08281000R
08282Bandas Lima Gris                                            08150Metro   300000000000003200000004000000000980   000               00000000 00000000 00000000 00000000 0000 09Accesorios                                                           08282000R
08283Bandas Lima Beige                                           08150Metro   300000000000003200000004000000000980   000               00000000 00000000 00000000 00000000 0000 09Accesorios                                                           08283000R
08284Bandas Lima Naranja                                         08150Metro   340000000000003200000004000000000980   000               00000000 00000000 00000000 00000000 0000 09Accesorios                                                           08284000R
08285Bandas Lima Tomate                                          08150Metro   340000000000003200000004000000000980   000               00000000 00000000 00000000 00000000 0000 09Accesorios                                                           08285000R
08286Bandas Lima Purpura                                         08150Metro   300000000000003200000004000000000980   000               00000000 00000000 00000000 00000000 0000 09Accesorios                                                           08286000R
08287Bandas Lima Verde                                           08150Metro   300000000000003200000004000000000980   000               00000000 00000000 00000000 00000000 0000 09Accesorios                                                           08287000R
08291Bandas Porto Blanco                                         08155Metro   300000000000004900000006100000001575   000               00000000 00000000 00000000 00000000 0000 09Accesorios                                                           08291000R
08292Bandas Porto Gris                                           08155Metro   300000000000004900000006100000001575   000               00000000 00000000 00000000 00000000 0000 09Accesorios                                                           08292000R
08293Bandas Porto Beige                                          08155Metro   300000000000004900000006100000001575   000               00000000 00000000 00000000 00000000 0000 09Accesorios                                                           08293000R
08294Bandas Porto Tierra                                         08155Metro   300000000000004900000006100000001575   000               00000000 00000000 00000000 00000000 0000 09Accesorios                                                           08294000R
08295Bandas Porto Arena                                          08155Metro   300000000000004900000006100000001575   000               00000000 00000000 00000000 00000000 0000 09Accesorios                                                           08295000R
08296Bandas Porto Azul                                           08155Metro   300000000000004900000006100000001575   000               00000000 00000000 00000000 00000000 0000 09Accesorios                                                           08296000R
08320Multistore Shadow Black-Out Blanco                          08060M2.     200000000000067900000084900000018008   000               00000000 00000000 00000000 00000000 0000 01Telas                                                                08320000R
08321Multistore Shadow Black-Out Magenta                         08060M2.     200000000000067900000084900000018008   000               00000000 00000000 00000000 00000000 0000 01Telas                                                                08321000R
08322Multistore Shadow Black-Out Violeta                         08060M2.     200000000000067900000084900000018008   000               00000000 00000000 00000000 00000000 0000 01Telas                                                                08322000R
08323Multistore Shadow Black-Out Gris                            08060M2.     200000000000067900000084900000018008   000               00000000 00000000 00000000 00000000 0000 01Telas                                                                08323000R
08324Multistore Shadow Black-Out Loro                            08060M2.     200000000000067900000084900000018008   000               00000000 00000000 00000000 00000000 0000 01Telas                                                                08324000R
08325Multistore Shadow Black-Out Anaranjado                      08060M2.     200000000000067900000084900000018008   000               00000000 00000000 00000000 00000000 0000 01Telas                                                                08325000R
08326Multistore Shadow Black-Out Tinto                           08060M2.     200000000000067900000084900000018008   000               00000000 00000000 00000000 00000000 0000 01Telas                                                                08326000R
08327Multistore Shadow Black-Out Marrón                          08060M2.     200000000000067900000084900000018008   000               00000000 00000000 00000000 00000000 0000 01Telas                                                                08327000R
08328Multistore Shadow Black-Out Beige                           08060M2.     200000000000067900000084900000018008   000               00000000 00000000 00000000 00000000 0000 01Telas                                                                08328000R
08329Multistore Shadow Black-Out Beige Oscuro                    08060M2.     200000000000067900000084900000018008   000               00000000 00000000 00000000 00000000 0000 01Telas                                                                08329000R
08330Multistore Shadow Black-Out Tomate                          08060M2.     200000000000067900000084900000018008   000               00000000 00000000 00000000 00000000 0000 01Telas                                                                08330000R
08341Multistore Sun Screen 6% Blanco                             08065M2.     200000000000057300000071600000016207   000               00000000 00000000 00000000 00000000 0000 01Telas                                                                08341000R
08345Multistore Sun Screen 6% Gris                               08065M2.     200000000000057300000071600000016207   000               00000000 00000000 00000000 00000000 0000 01Telas                                                                08345000R
08346Multistore Sun Screen 6% Beige                              08065M2.     200000000000057300000071600000016207   000               00000000 00000000 00000000 00000000 0000 01Telas                                                                08346000R
08352Multistore Circus Naranja                                   08080M2.     200000000000069300000086600000017332   000               00000000 00000000 00000000 00000000 0000 01Telas                                                                08352000R
08353Multistore Circus Terracota                                 08080M2.     200000000000069300000086600000017332   000               00000000 00000000 00000000 00000000 0000 01Telas                                                                08353000R
08354Multistore Circus Verde                                     08080M2.     200000000000069300000086600000017332   000               00000000 00000000 00000000 00000000 0000 01Telas                                                                08354000R
08355Multistore Circus Cinza                                     08080M2.     200000000000069300000086600000017332   000               00000000 00000000 00000000 00000000 0000 01Telas                                                                08355000R
08356Multistore Circus Azul                                      08080M2.     200000000000069300000086600000017332   000               00000000 00000000 00000000 00000000 0000 01Telas                                                                08356000R
08357Multistore Circus Lila                                      08080M2.     200000000000069300000086600000017332   000               00000000 00000000 00000000 00000000 0000 01Telas                                                                08357000R
08421Multistore Poliéster Blanco                                 08070M2.     200000000000031000000038800000009069   000               00000000 00000000 00000000 00000000 0000 01Telas                                                                08421000R
08422Multistore Poliéster Amarillo                               08070M2.     200000000000031000000038800000009069   000               00000000 00000000 00000000 00000000 0000 01Telas                                                                08422000R
08423Multistore Poliéster Verde                                  08070M2.     200000000000031000000038800000009069   000               00000000 00000000 00000000 00000000 0000 01Telas                                                                08423000R
08424Multistore Poliéster Azul                                   08070M2.     200000000000031000000038800000009069   000               00000000 00000000 00000000 00000000 0000 01Telas                                                                08424000R
08425Multistore Poliéster Gris                                   08070M2.     200000000000031000000038800000009069   000               00000000 00000000 00000000 00000000 0000 01Telas                                                                08425000R
08426Multistore Poliéster Beige                                  08070M2.     200000000000031000000038800000009069   000               00000000 00000000 00000000 00000000 0000 01Telas                                                                08426000R
08427Multistore Poliéster Mora                                   08070M2.     200000000000031000000038800000009069   000               00000000 00000000 00000000 00000000 0000 01Telas                                                                08427000R
08428Multistore Poliéster Tomate                                 08070M2.     200000000000031000000038800000009069   000               00000000 00000000 00000000 00000000 0000 01Telas                                                                08428000R
08429Multistore Poliéster Negro                                  08070M2.     200000000000031000000038800000009069   000               00000000 00000000 00000000 00000000 0000 01Telas                                                                08429000R
08471Multistore de fibra de vidrio Rain Blanco                   08075M2.     200000000000060000000075000000019050   000               00000000 00000000 00000000 00000000 0000 01Telas                                                                08471000R
08472Multistore de fibra de vidrio Rain Azul                     08075M2.     200000000000060000000075000000019050   000               00000000 00000000 00000000 00000000 0000 01Telas                                                                08472000R
08475Multistore de fibra de vidrio Rain Gris                     08075M2.     200000000000060000000075000000019050   000               00000000 00000000 00000000 00000000 0000 01Telas                                                                08475000R
08476Multistore de fibra de vidrio Rain Beige                    08075M2.     200000000000060000000075000000019050   000               00000000 00000000 00000000 00000000 0000 01Telas                                                                08476000R
08478Multistore de fibra de vidrio Rain Beige Oscuro             08075M2.     200000000000060000000075000000019050   000               00000000 00000000 00000000 00000000 0000 01Telas                                                                08478000R
08581Multistore Poliéster 250 Nieve                              08085M2.     200000000000060800000076000000014181   000               00000000 00000000 00000000 00000000 0000 01Telas                                                                08581000R
08582Multistore Poliéster 250 Vainilla                           08085M2.     200000000000060800000076000000014181   000               00000000 00000000 00000000 00000000 0000 01Telas                                                                08582000R
08583Multistore Poliéster 250 Manzana                            08085M2.     200000000000060800000076000000014181   000               00000000 00000000 00000000 00000000 0000 01Telas                                                                08583000R
08584Multistore Poliéster 250 Damasco                            08085M2.     200000000000060800000076000000014181   000               00000000 00000000 00000000 00000000 0000 01Telas                                                                08584000R
08585Multistore Poliéster 250 Tormenta                           08085M2.     200000000000060800000076000000014181   000               00000000 00000000 00000000 00000000 0000 01Telas                                                                08585000R
08586Multistore Poliéster 250 Capuchino                          08085M2.     200000000000060800000076000000014181   000               00000000 00000000 00000000 00000000 0000 01Telas                                                                08586000R
08587Multistore Poliéster 250 Calabaza                           08085M2.     200000000000060800000076000000014181   000               00000000 00000000 00000000 00000000 0000 01Telas                                                                08587000R
08588Multistore Poliéster 250 Tomate                             08085M2.     200000000000060800000076000000014181   000               00000000 00000000 00000000 00000000 0000 01Telas                                                                08588000R
08589Multistore Poliéster 250 Violeta                            08085M2.     200000000000060800000076000000014181   000               00000000 00000000 00000000 00000000 0000 01Telas                                                                08589000R
08601Multistore Venezia Blanco                                   08040M2.     200000000000049500000061900000015844   000               00000000 00000000 00000000 00000000 0000 01Telas                                                                08601000R
08602Multistore Venezia Topo                                     08040M2.     200000000000049500000061900000015844   000               00000000 00000000 00000000 00000000 0000 01Telas                                                                08602000R
08603Multistore Venezia Beige                                    08040M2.     200000000000049500000061900000015844   000               00000000 00000000 00000000 00000000 0000 01Telas                                                                08603000R
08611Multistore Presto Print Blanco                              08045M2.     200000000000058400000073000000018935   000               00000000 00000000 00000000 00000000 0000 01Telas                                                                08611000R
08612Multistore Presto Print Gris                                08045M2.     200000000000058400000073000000018935   000               00000000 00000000 00000000 00000000 0000 01Telas                                                                08612000R
08613Multistore Presto Print Beige                               08045M2.     200000000000058400000073000000018935   000               00000000 00000000 00000000 00000000 0000 01Telas                                                                08613000R
08621Multistore Lima Blanco                                      08050M2.     200000000000040300000050400000012756   000               00000000 00000000 00000000 00000000 0000 01Telas                                                                08621000R
08622Multistore Lima Gris                                        08050M2.     200000000000040300000050400000012756   000               00000000 00000000 00000000 00000000 0000 01Telas                                                                08622000R
08623Multistore Lima Beige                                       08050M2.     200000000000040300000050400000012756   000               00000000 00000000 00000000 00000000 0000 01Telas                                                                08623000R
08624Multistore Lima Naranja                                     08050M2.     200000000000040300000050400000012756   000               00000000 00000000 00000000 00000000 0000 01Telas                                                                08624000R
08625Multistore Lima Tomate                                      08050M2.     200000000000040300000050400000012756   000               00000000 00000000 00000000 00000000 0000 01Telas                                                                08625000R
08626Multistore Lima Purpura                                     08050M2.     200000000000040300000050400000012756   000               00000000 00000000 00000000 00000000 0000 01Telas                                                                08626000R
08627Multistore Lima Verde                                       08050M2.     200000000000040300000050400000012756   000               00000000 00000000 00000000 00000000 0000 01Telas                                                                08627000R
08631Multistore Porto Blanco                                     08055M2.     200000000000062900000078600000020479   000               00000000 00000000 00000000 00000000 0000 01Telas                                                                08631000R
08632Multistore Porto Gris                                       08055M2.     200000000000062900000078600000020479   000               00000000 00000000 00000000 00000000 0000 01Telas                                                                08632000R
08633Multistore Porto Beige                                      08055M2.     200000000000062900000078600000020479   000               00000000 00000000 00000000 00000000 0000 01Telas                                                                08633000R
08634Multistore Porto Tierra                                     08055M2.     200000000000062900000078600000020479   000               00000000 00000000 00000000 00000000 0000 01Telas                                                                08634000R
08635Multistore Porto Arena                                      08055M2.     200000000000062900000078600000020479   000               00000000 00000000 00000000 00000000 0000 01Telas                                                                08635000R
08636Multistore Porto Azul                                       08055M2.     200000000000062900000078600000020479   000               00000000 00000000 00000000 00000000 0000 01Telas                                                                08636000R
08750Adicional por riel "Prolight" inclinado                     08005Unid.   000000000000047700000059600000016342   000               00000000 00000000 00000000 00000000 0000 02Sistemas                                                             08750000R
08900Perfil Multistore Prolight                                  08200Metro   100000000000026400000033000000005666   000               00000000 00000000 00000000 00000000 0000 09Accesorios                                                           08900000R
08902Cordón de 2 mm para cortinas  Multistore Prolight           08200Metro   000000000000000360000000450000000050   000               00000000 00000000 00000000 00000000 0000 09Accesorios                                                           08902000R
08903Contrapeso cordón para riel Multistore Prolight             08200Unid.   000000000000003200000004000000000612   000               00000000 00000000 00000000 00000000 0000 09Accesorios                                                           08903000R
08904Correderas para riel Multistore Prolight                    08200Unid.   000000000000000850000001060000000090   000               00000000 00000000 00000000 00000000 0000 09Accesorios                                                           08904000R
08905Separadores para correderas   8904                          08200Unid.   000000000000000170000000210000000012   000               00000000 00000000 00000000 00000000 0000 09Accesorios                                                           08905000R
08906Caja reductora para riel Multistore Prolight                08200Unid.   000000000000003900000004900000000560   000               00000000 00000000 00000000 00000000 0000 09Accesorios                                                           08906000R
08907Tiraje de una polea                                         08200Unid.   000000000000001890000002400000000560   000               00000000 00000000 00000000 00000000 0000 09Accesorios                                                           08907000R
08908Cruz para riel Multistore Prolight                          08200Unid.   000000000000000790000000990000000112   000               00000000 00000000 00000000 00000000 0000 09Accesorios                                                           08908000R
08909Topes de P.V.C.                                             08200Unid.   000000000000000320000000400000000017   000               00000000 00000000 00000000 00000000 0000 09Accesorios                                                           08909000R
08919Escuadra para arrastre de imán cruz                         08200Unid.   000000000000000134000000170000000140   000               00000000 00000000 00000000 00000000 0000 09Accesorios                                                           08919000R
08920Sostén sinfín con imán                                      08200Unid.   000000000000001910000002400000000280   000               00000000 00000000 00000000 00000000 0000 09Accesorios                                                           08920000R
08921Cadena para mando                                           08200Metro   000000000000002600000003300000000140   000               00000000 00000000 00000000 00000000 0000 09Accesorios                                                           08921000R
08925Retén sinfín trebolado                                      08200Unid.   000000000000000840000001050000000282   000               00000000 00000000 00000000 00000000 0000 09Accesorios                                                           08925000R
08930Contrapeso para bandas de 250 mm c/plástico enganche cadena 08205Unid.   000000000000001710000002100000000206   000               00000000 00000000 00000000 00000000 0000 09Accesorios                                                           08930000R
08931Percha de metal para bandas de 250 mm                       08205Unid.   000000000000001020000001280000000172   000               00000000 00000000 00000000 00000000 0000 09Accesorios                                                           08931000R
08932Separador de metal para bandas de 250 mm                    08205Unid.   000000000000001090000001360000000215   000               00000000 00000000 00000000 00000000 0000 09Accesorios                                                           08932000R
08933Corredera para bandas 250 mm                                08205Unid.   000000000000000850000001060000000096   000               00000000 00000000 00000000 00000000 0000 09Accesorios                                                           08933000R
08939Perchas metal para riel Prolight automatizado, bandas 9 cm  08200Unid.   040000000000001110000001390000000172   000               00000000 00000000 00000000 00000000 0000 09Accesorios                                                           08939000R
08941Percha para bandas                                          08200Unid.   000000000000000160000000200000000046   000               00000000 00000000 00000000 00000000 0000 09Accesorios                                                           08941000R
08942Contrapeso para bandas                                      08200Unid.   000000000000001170000001460000000096   000               00000000 00000000 00000000 00000000 0000 09Accesorios                                                           08942000R
08944Cadena de perlas con bisagras                               08200Metro   000000000000003600000004500000000118   000               00000000 00000000 00000000 00000000 0000 09Accesorios                                                           08944000R
08945Cadena perlas con bisagra para riel Multistore 250 mm       08205Metro   040000000000004000000005000000000493   000               00000000 00000000 00000000 00000000 0000 09Accesorios                                                           08945000R
08950Sinfín de aluminio trebolado                                08200Metro   100000000000003900000004900000001190   000               00000000 00000000 00000000 00000000 0000 09Accesorios                                                           08950000R
09004Alambre cobreado de 3 mm para caño de roler                 09800Metro   100000000000001050000001310000000309   000               00000000 00000000 00000000 00000000 0000 09Accesorios                                                           09004000R
09007Argolla con cordón para roler con resorte                   09810Unid.   000000000000000700000000880000000111   000               00000000 00000000 00000000 00000000 0000 09Accesorios                                                           09007000R
09010Planchuela oval de aluminio para contrapeso de 4 x 19 mm    09800Metro   100000000000009700000012100000001364   000               00000000 00000000 00000000 00000000 0000 09Accesorios                                                           09010000R
09021Cadena metálica para mando por metro                        09830Metro   000000000000003600000004500000000539   000               00000000 00000000 00000000 00000000 0000 09Accesorios                                                           09021000R
09025Corrector lateral Tecnoroll   (T.fijos 29/40/48 y 58)       09820Unid.   000000000000000930000001160000000145   000               00000000 00000000 00000000 00000000 0000 09Accesorios                                                           09025000R
09030Cremallera para cortina roler inclinada, par, color blanco  09810Metro   300000000000044300000055400000006924   000               00000000 00000000 00000000 00000000 0000 09Accesorios                                                           09030000R
09031Cadena plástica para mando por metro color Blanco           09830Metro   000000000000001210000001510000000187   000               00000000 00000000 00000000 00000000 0000 09Accesorios                                                           09031000R
09032Guía laterales de 40 X 15 mm  sin felpa p/Casette de 60 mm  09362Metro   300000000000025400000031800000003899   000               00000000 00000000 00000000 00000000 0000 07Guias                                                                09032000R
09033Cadena plástica para mando por metro color Negro            09830Metro   000000000000001201000001500000000187   000               00000000 00000000 00000000 00000000 0000 09Accesorios                                                           09033000R
09034Cadena plástica para mando por metro color Beige            09830Metro   000000000000001210000001510000000187   000               00000000 00000000 00000000 00000000 0000 09Accesorios                                                           09034000R
09035Frente cubre tela recto de 75 mm con un par de soportes     09359Metro   100000000000032000000040000000005914   000               00000000 00000000 00000000 00000000 0000 09Accesorios                                                           09035000R
09036Guía para exterior de 32 x 26  mm                           09362Metro   300000000000029600000037000000007373   000               00000000 00000000 00000000 00000000 0000 07Guias                                                                09036000R
09037Cenefa 75 mm frente recto con soportes para tela por detrás 09359Metro   100000000000050200000062800000010968   000               00000000 00000000 00000000 00000000 0000 09Accesorios                                                           09037000R
09038Cenefa 100 mm frente recto con soportes para tela por detrás09359Metro   100000000000070000000087500000026864   000               00000000 00000000 00000000 00000000 0000 09Accesorios                                                           09038000R
09039Cadena plastica para mando por metro color Gris             09830Metro   000000000000001210000001510000000187   000               00000000 00000000 00000000 00000000 0000 09Accesorios                                                           09039000R
09040Enganche de aluminio para taparrollo                        09361Metro   100000000000011600000014500000002887   000               00000000 00000000 00000000 00000000 0000 09Accesorios                                                           09040000R
09041Tapa de aluminio para taparrollo de 45 mm                   09361Metro   100000000000014000000017500000003774   000               00000000 00000000 00000000 00000000 0000 09Accesorios                                                           09041000R
09042Tapa de aluminio para taparrollo de 77 mm                   09361Metro   100000000000017700000022100000004816   000               00000000 00000000 00000000 00000000 0000 09Accesorios                                                           09042000R
09053Tapa para zócalo oval unidad de repuesto                    09865Unid.   000000000000000770000000960000000149   000               00000000 00000000 00000000 00000000 0000 09Accesorios                                                           09053000R
09054Zócalo oval anodizado Natural                               09860Metro   100000000000018900000023600000002695   000               00000000 00000000 00000000 00000000 0000 08Zocalos                                                              09054000R
09055Zócalo oval color Blanco                                    09860Metro   100000000000013400000016800000002893   000               00000000 00000000 00000000 00000000 0000 08Zocalos                                                              09055000R
09056Zócalo pesado para roler de uso exterior                    09860Metro   100000000000031700000039600000001479   000               00000000 00000000 00000000 00000000 0000 08Zocalos                                                              09056000R
09059Batten oval de aluminio de 4 x 19 mm                        09880Metro   100000000000011400000014300000004088   000               00000000 00000000 00000000 00000000 0000 09Accesorios                                                           09059000R
09060Base sujeción p/sistema Tecno en overlapping de 65 x 100 mm 09380Metro   100000000000049400000061800000013703   000               00000000 00000000 00000000 00000000 0000 09Accesorios                                                           09060000R
09061Base sujeción p/sistema T.Maxi en overlapping 80 x 135 mm   09380Metro   100000000000055900000069900000014205   000               00000000 00000000 00000000 00000000 0000 09Accesorios                                                           09061000R
09062Base sujeción p/SuperTecno en overlaping de 80 x 145 mm     09380Metro   100000000000063800000079800000015209   000               00000000 00000000 00000000 00000000 0000 09Accesorios                                                           09062000R
09065Base sujeción y/o cenefa de 60 mm x 60 mm para Tecnoroll    09380Metro   100000000000033800000042300000006049   000               00000000 00000000 00000000 00000000 0000 09Accesorios                                                           09065000R
09067Base sujeción y/o cenefa de 50 mm x 25 mm para Tecnoroll    09380Metro   100000000000023900000029900000004393   000               00000000 00000000 00000000 00000000 0000 09Accesorios                                                           09067000R
09068Base sujeción sistema Tecno de11 x 50 x 11 mm con soportes  09380Metro   100000000000026700000033400000008895   000               00000000 00000000 00000000 00000000 0000 09Accesorios                                                           09068000R
09069Base sujeción T.Maxi o aut.48 Aluminio con soportes         09380Metro   100000000000032700000040900000014343   000               00000000 00000000 00000000 00000000 0000 09Accesorios                                                           09069000R
09070Felpa para zócalos lisos 5 x 13 mm                          09362Metro   100000000000001740000002200000000309   000               00000000 00000000 00000000 00000000 0000 07Guias                                                                09070000R
09072Guía laterales de 40 x 25 mm  con felpa                     09362Metro   300000000000029200000036500000008637   000               00000000 00000000 00000000 00000000 0000 07Guias                                                                09072000R
09074Guía laterales de 50 x 25 mm  con felpa                     09362Metro   300000000000036900000046100000009359   000               00000000 00000000 00000000 00000000 0000 07Guias                                                                09074000R
09076Guía laterales de 60 x 25 mm  con felpa                     09362Metro   300000000000046900000058600000009951   000               00000000 00000000 00000000 00000000 0000 07Guias                                                                09076000R
09078Guía de acero inoxidable de 8  mm de diámetro, con soporte  09363Metro   300000000000043500000054400000007881   000               00000000 00000000 00000000 00000000 0000 07Guias                                                                09078000R
09079Guía de acero inoxidable de 1 2 mm de diámetro, con soporte 09363Metro   300000000000074900000093600000011331   000               00000000 00000000 00000000 00000000 0000 07Guias                                                                09079000R
09082Soportes para guías de acero de  8 mm                       09363Unid.   000000000000006300000007900000000644   000               00000000 00000000 00000000 00000000 0000 07Guias                                                                09082000R
09083Soportes para guías de acero de 12 mm                       09363Unid.   000000000000008100000010100000000456   000               00000000 00000000 00000000 00000000 0000 07Guias                                                                09083000R
09086Suplemento para guías de acero de 8 mm                      09363Unid.   000000000000002300000002900000000262   000               00000000 00000000 00000000 00000000 0000 07Guias                                                                09086000R
09087Suplemento para guías de acero de 12 mm                     09363Unid.   000000000000003200000004000000000437   000               00000000 00000000 00000000 00000000 0000 07Guias                                                                09087000R
09090Guía lateral de cable de acero de 1,5 mm con tensor y retén 09364Metro   300000000000010900000013600000002960   000               00000000 00000000 00000000 00000000 0000 07Guias                                                                09090000R
09091Guía lateral de cable de acero de 3 mm con tensor y retén   09364Metro   300000000000014000000017500000004052   000               00000000 00000000 00000000 00000000 0000 07Guias                                                                09091000R
